:020000040800F2
:10000000003E002099010008031D0008CD1B0008D8
:10001000011D0008870200087D2D00080000000077
:1000200000000000000000000000000001010008C6
:10003000890200080000000045010008412800086E
:10004000B3010008B3010008B3010008491E00080D
:10005000B3010008B3010008B3010008B3010008B0
:10006000B3010008B3010008B3010008B3010008A0
:10007000B3010008B3010008B3010008B301000890
:10008000B3010008B3010008B3010008B301000880
:10009000B3010008B3010008B3010008B301000870
:1000A000B301000841290008B3010008B3010008AA
:1000B0004D29000859290008B3010008B3010008C0
:1000C000B3010008B3010008B3010008B301000840
:1000D000B3010008712D0008B3010008B301000846
:1000E000B3010008B3010008B3010008DFF80CD029
:1000F00000F088F800480047BD2D0008003E0020B1
:10010000224B19680868B0E8F00F80F30988BFF344
:100110006F8F4FF0000080F311884EF00D0E704786
:100120000000000006480068006880F3088862B696
:1001300061B6BFF34F8FBFF36F8F00DF00BF00BF0B
:1001400008ED00E0EFF30980BFF36F8F0F4B1A68E3
:1001500020E9F00F106008B54FF0500080F31188CF
:10016000BFF34F8FBFF36F8F04F0C6F84FF000005E
:1001700080F31188BDE8084019680868B0E8F00FFE
:1001800080F30988BFF36F8F704700BF640B0020B6
:10019000EFF3058070470000064880470648004797
:1001A000FEE7FEE7FEE7FEE7FEE7FEE7FEE7FEE727
:1001B000FEE7FEE73D290008ED00000840EA0103E4
:1001C0009B0703D009E008C9121F08C0042AFAD20D
:1001D00003E011F8013B00F8013B521EF9D27047D1
:1001E000D2B201E000F8012B491EFBD27047002279
:1001F000F6E710B513460A4604461946FFF7F0FF26
:10020000204610BD064C074D06E0E06840F00103B3
:1002100094E8070098471034AC42F6D3FFF76AFF22
:100220002C5300084C53000870B58D1810F8014B82
:1002300014F0030201D110F8012B231106D110F89C
:10024000013B03E010F8016B01F8016B521EF9D17C
:10025000ABB110F8012B04F00C048A1A0C2C03D05B
:10026000A2EB84129B1C08E010F8014BA2EB0422C5
:10027000F8E712F8014B01F8014B5B1EF9D5A942D2
:10028000D4D3002070BDFEE77047000010B590F891
:1002900021100024022903D00421816301243DE0C0
:1002A00001680A6822F00E020A6001680A6822F0FA
:1002B00001020A601A4A0168914201D1012121E03C
:1002C000174A1432914201D110211BE0144A2832FE
:1002D000914201D1891515E0114A3C32914201D178
:1002E00089140FE00E4A5032914202D14FF480310E
:1002F00008E00B4A6432914202D14FF4801101E0D0
:100300004FF08071064A083A5160012180F82110AF
:10031000002180F82010416B01B18847204610BDB4
:100320000800024070B5044600F008F90546601C5C
:1003300002D004480078044400F000F9401BA042B9
:10034000FAD370BD540B00202DE9F84FDFF8B891B7
:10035000002409F1040A0AF1040B23460F270BF1CC
:10036000040EC9E00125A5402A40AA427DD1674E6E
:10037000D1F804C0ACEB0608B44532D014DCBCF1B3
:10038000030F3AD009DCBCF1000F2AD0BCF1010FF9
:100390001CD0BCF1020F31D11DE0BCF1110F17D000
:1003A000BCF1120F2AD119E0B8F5881F19D006DC6C
:1003B000B8F5803F15D0B8F5801F1FD111E0B8F512
:1003C000001F0ED0B8F5041F18D10AE0CB6815E065
:1003D000CB681B1D12E0CB6808330FE0CB680C33F1
:1003E0000CE08B682BB1012B4FF0080303D0456163
:1003F00004E0042302E0056100E00023FF2A01D8A5
:10040000064601E000F104064FEA840501D9A5F192
:100410002005D6F8008007FA05FC28EA0C0803FA44
:1004200005F548EA0508C6F800804D68ED0062D57C
:10043000374DAE6946F00106AE61AD6924F00306A2
:1004400005F001050095334D06EB050CDCF808506E
:10045000A607360F07FA06F825EA0805DFF8B88080
:10046000404503D14FF0000817E044E0DFF8AC80CE
:10047000404502D14FF001080FE0DFF8A48040456D
:1004800002D14FF0020808E0DFF89880404502D121
:100490004FF0030801E04FF0040808FA06F848EAB4
:1004A0000508CCF808804D68D9F80060ED034D468A
:1004B00001D5164300E096432E604D68DAF80060DF
:1004C000AD03554601D5164300E096432E604D68B6
:1004D000DBF80060ED025D4601D5164300E096436F
:1004E0002E604D68DEF80060AD02754601D51643FA
:1004F00000E096432E60641C0D682A46E5407FF4B8
:1005000031AFBDE8F88F0000000401400000111079
:10051000001002400000014000080140000C0140B2
:1005200000100140001401408068084000D0012004
:1005300070470AB1016170470904FBE70148806810
:1005400070470000540B0020024881680278114473
:1005500081607047540B0020074810B5016841F0D6
:1005600010010160032000F095F8002000F006F86B
:1005700000F03EF8002010BD0020024000B501460A
:1005800087B00022192000F065F8192000F054F817
:100590001348816941F400618161806905A900F413
:1005A00000600690684600F0FDF900F02BFA0D4956
:1005B0000D4AB0FBF1F10D48491E0260416040F266
:1005C000E7320021C0E90321816000F025FE10B16F
:1005D000012007B000BD054800F068FEF9E7000003
:1005E0000010024040420F00002C0140E40C0020AB
:1005F0000F4808B5816941F001018161816901F00D
:1006000001010091C16941F08051C161C0690022BE
:1006100000F0805000900F21901E00F01BF805485C
:10062000416821F0E06141F00071416008BD0000C7
:100630000010024000000140002809DB00F01F020A
:10064000012191404009800000F1E020C0F8001134
:1006500070470000F0B40E4B1B680C46C3F3022336
:10066000C3F10705042D00D90425191D072901D25E
:10067000002300E0DB1E012606FA05F1491E214099
:1006800099409E40761E16403143F0BC02F077BB85
:100690000CED00E0064900F0070208684FF6FF0382
:1006A000184040EA0220034A1043086070470000E7
:1006B0000CED00E00000FA050149012008627047D6
:1006C00000000E4210B529A401461DCC86B08DE86D
:1006D0001D002AA02A4C006804900020012923D084
:1006E00002293AD010291DD161682268D20119D59A
:1006F000C1F38342C9031DF8020009D5616804AA49
:10070000C1F34041515C1F4AB2FBF1F1484301E0A3
:100710001D4948436168490204D440005FF0030169
:10072000B0FBF1F006B010BD226AC2F3012101292D
:1007300003D1920701D5C803F4E7022905D1626A03
:10074000920702D549F64040ECE70329EAD1216837
:100750008903E7D54FF22440E4E700F053F96168DC
:10076000C1F38131491C4900DAE7000002030405A6
:10077000060708090A0B0C0D0E0F101001020000ED
:100780000010024000127A0000093D002DE9F843F4
:1007900005460078354CC00754D0E0690026C000FB
:1007A00008D4E06940F08050E061E069012600F083
:1007B000805000902E480168C90512D40168804617
:1007C00041F480710160FFF7B9FE074605E000BF04
:1007D000FFF7B4FEC01B642823D8D8F80000C0057A
:1007E000F6D5206A10F4407021D0A98801F4407138
:1007F00081421CD0206A1F49012220F440700A6007
:1008000000220A602062C00711D0FFF797FE07465A
:1008100041F2883808E000BFFFF790FEC11B414558
:1008200002D90320BDE8F883206A8007F4D5206A46
:10083000696820F44070084320621EB1E06920F02E
:100840008050E0612878800705D56068A96820F4A9
:100850004040084360602878C00605D56068E968B4
:1008600020F48000084360600020DBE700100240B5
:1008700000700040400442422DE9F0470F46050059
:1008800061D0434E306800F00700B84209D23068AA
:1008900020F0070038433060306800F00700B842AD
:1008A00051D128683B4C810712D5400703D56068B9
:1008B00040F4E06060602878000703D5606840F489
:1008C000605060606068A96820F0F00008436060D4
:1008D0002878C00728D06868012810D0216802282D
:1008E00010D0890700292EDA616821F00301014345
:1008F0006160FFF723FE804641F288390DE02168F0
:100900008903EFE78901EDE7FFF718FEA0EB080187
:10091000494502D90320BDE8F0876068696800F0A6
:100920000C00B0EB810FEFD1306800F00700B84247
:100930000BD9306820F0070038433060306800F091
:100940000700B84201D00120E5E72878400705D527
:100950006068E96820F4E060084360602878000778
:1009600006D56068296920F4605040EAC1006060E3
:1009700000F058F86168084AC1F30311515CC8409F
:100980000649086006480068FFF7F8FD0020C2E746
:1009900000200240001002403C520008600B002082
:1009A000580B00200F2202600C4A536803F0030327
:1009B0004360536803F0F0038360536803F4E0631B
:1009C000C36052684FF4E06303EAD2020261044854
:1009D000006800F007000860704700000010024047
:1009E000002002400448054900684968044AC1F3F0
:1009F0000221515CC8407047600B0020001002408B
:100A00004C5200080448054900684968044AC1F38B
:100A1000C221515CC8407047600B002000100240AA
:100A20004C52000812A185B00FC98DE80F0014A028
:100A3000144A006804905168134801F00C03042B19
:100A400010D0082B0ED1C1F38343C9031DF8030056
:100A50000AD5516804AAC1F34041515C0A4A504387
:100A6000B0FBF1F005B0704708494843FAE70000D1
:100A700002030405060708090A0B0C0D0E0F1010DF
:100A8000010200000010024000127A0000093D003F
:100A90002DE9F84F040070D02078C04DC00749D030
:100AA0006868C0F38100012807D06868C0F381003E
:100AB000022809D16868C00306D52868800339D5A3
:100AC00060680028E7D035E06068B0F5803F0BD063
:100AD00010B1B0F5A02F11D0286820F48030286024
:100AE000286820F4802002E0286840F480302860E4
:100AF000606890B1FFF722FD06460AE0286840F4DE
:100B000080202860F0E700BFFFF718FD801B6428F5
:100B100073D828688003F7D50CE0FFF70FFD064671
:100B200005E000BFFFF70AFD801B6428F0D82868A5
:100B30008003F7D420789A4E80074FF001094FF0D8
:100B4000000839D5686810F00C0F07D06868C0F34A
:100B50008100022809D16868C00306D4286880078C
:100B600014D52069012808D110E02069B0B1C6F879
:100B70000090FFF7E3FC074605E00AE1FFF7DEFC23
:100B8000C01B0228C4D828688007F7D52868616987
:100B900020F0F80040EAC10028600DE0C6F80080AF
:100BA000FFF7CCFC074604E0FFF7C8FCC01B022897
:100BB00023D828688007F7D4207800072CD57948F7
:100BC000A169D9B1C0F80090FFF7B8FC074604E06E
:100BD000FFF7B4FCC01B02280FD8686A8007F7D55E
:100BE00071484FF4FA510068B0FBF1F0009000BF7B
:100BF0000098411E0091FAD20EE080E0C0F800801B
:100C0000FFF79CFC074604E0FFF798FCC01B022896
:100C100075D8686A8007F7D42078400760D5E869FE
:100C20000027C00008D4E86940F08050E861E86916
:100C3000012700F0805000905C480168C90513D47A
:100C40000168834641F480710160FFF777FC8246BA
:100C500006E000BFFFF772FCA0EB0A0064284ED844
:100C6000DBF80000C005F5D5E06801280AD008B11E
:100C7000052813D0286A20F001002862286A20F095
:100C8000040002E0286A40F001002862E06841F2B6
:100C9000883B98B1FFF752FC82460BE0286A40F08F
:100CA00004002862EEE700BFFFF748FCA0EB0A0152
:100CB00059455AD8286A8007F6D50CE0FFF73EFC64
:100CC000824605E0FFF73AFCA0EB0A0159454CD8F3
:100CD000286A8007F6D41FB1E86920F08050E861E7
:100CE000E06988B36968C1F38101022944D0022810
:100CF000C6F8608004D0FFF721FC044638E034E0F9
:100D0000FFF71CFC074604E0FFF718FCC01B022895
:100D10002BD828688001F7D4206AB0F5803F05D130
:100D20006868A16820F4003008436860D4E90801CD
:100D30000843696821F4741108436860C6F860903C
:100D4000FFF7FCFB044606E025E000BFFFF7F6FBDB
:100D5000001B022809D828688001F7D51BE000BFD6
:100D6000FFF7ECFB001B022802D90320BDE8F88F37
:100D700028688001F4D40EE00128F7D06868226A60
:100D800000F48031914204D1616A00F4701088420D
:100D900001D00120EAE70020E8E70000001002404F
:100DA0000000424280044242600B0020007000407C
:100DB0007047704710B5044600680168C90716D02F
:100DC0004168C90713D040684007204607D5FFF7A0
:100DD000F0FF21686FF004004860042002E0FFF794
:100DE000E7FF0120607421686FF00100486010BDCA
:100DF000F8B505004FF0000016460C46009006D0EE
:100E00002CB100226946284600F019F808B10120EB
:100E1000F8BD287B2070E87BE070697B6170A97B5E
:100E2000A17056B100F077FFE070607800F073FFBA
:100E30006070A07800F06FFFA0700020F8BD2DE971
:100E4000F04791460C465FEA00084AD084B3D8F8D0
:100E500000004068400744D4404601F002F84FF4D7
:100E600061620546B0FBF2F1B0FBF2F302FB1350F6
:100E70003C23B0FBF3F0B5FBF2F6607002FB1650BA
:100E8000B0FBF3F203FB1200A070182931D3182035
:100E9000B1FBF0F7B1FBF0F200FB121020704046FE
:100EA00000F0D8FF411C04D0A84202D9461B02E042
:100EB00017E04FF0FF36A7EB071000EB4000C0EB48
:100EC000001005EBC0152946404601F019F840B95D
:100ED000701C01D0711900E03146404600F0FCFF63
:100EE00010B10120BDE8F0873946404600F01EFFF2
:100EF00000E02170B9F1000F0BD0207800F00BFF5B
:100F00002070607800F007FF6070A07800F003FFA9
:100F1000A0700020E6E7000070B5040003D0607CFC
:100F2000002610B105E0012070BD2674204600F0B7
:100F300043F802206074204600F01AF9042578BBBB
:100F4000204600F04AFF58BB2068416821F00701A5
:100F50004160A06820B11748016821F001010160DB
:100F60001448001F0168A26821F4607111430160F8
:100F70006068411C04D10120FFF7A4FB80B1401E32
:100F800021688A6822F00F0242EA10428A602168D2
:100F9000CA6860F30F02CA60204600F039FF08B14A
:100FA0006574C0E7E67301206073A073607400206D
:100FB00070BD0000306C004008B500680D498842E3
:100FC00017D1FFF779FB0C48C16941F00061C1619D
:100FD000C0690A4900F0006000900120086000220A
:100FE00005210320FFF736FBBDE808400320FFF78B
:100FF00023BB08BD00280040001002403C044242D0
:101000002DE9F0410D4604003BD0C5B3207C0128FA
:101010003AD04FF0010884F8108002206074E8781C
:1010200072B300F06FFEE073687800F06BFE6073DF
:10103000A87800F067FEA073C2B2617BE07B00F08D
:1010400020FF20732870204600F00BFF4FF46161F1
:10105000B0FBF1F1002518292DD91822B1FBF2F1CE
:10106000A1EB011101EB4101C1EB011100EBC11634
:101070003146204600F044FF0427C8B90BE000E0E9
:1010800004E00120BDE8F0810220FBE7E07368780E
:101090006073A878CFE7204600F0DCFE411C0AD040
:1010A000B04208D206490144204600F015FF10B1B5
:1010B00067742574E5E784F8118025740020E1E762
:1010C000805101002DE9F0410D46040024D01DB3EC
:1010D000207C012823D04FF0010884F810800220E2
:1010E00060742878EAB100F00DFE4FF4616100FBF6
:1010F00001F6687800F006FEC0EB001006EB8006F3
:10110000A87800F0FFFD35182946204600F0F8FECB
:101110000026042710BB0FE00120BDE8F08102206B
:10112000FBE74FF4616148436978C1EB011100EBC3
:101130008100A9784518E7E72068416821F005019A
:101140004160204600F086FE411C0AD0A84208D229
:1011500006490144204600F0BFFE10B167742674B2
:10116000DAE784F8118026740020D6E78051010068
:1011700070B504000AD02068416821F00801416080
:10118000FFF7DCF905464FF47A7608E0012070BDE0
:10119000FFF7D4F9401BB04201D9032070BD20688D
:1011A00040680007F4D5002070BD7047704700000C
:1011B00070B590F83C20012A26D0012480F83C40EC
:1011C000022280F83D2003685A689D6822F070066C
:1011D0000A6832435A600D4B02689A4208D0B2F155
:1011E000804F05D00A4B9A4202D00A4B9A4204D152
:1011F000496825F080031943916080F83D40002143
:1012000080F83C10084670BD022070BD002C0140E3
:10121000000400400008004010B5040003D094F81A
:101220003D0010B107E0012010BD002084F83C0013
:10123000204600F01FF8022084F83D00211D2068A0
:1012400001F090FB012084F8460084F83E0084F809
:101250003F0084F8400084F8410084F8420084F89C
:10126000430084F8440084F8450084F83D000020E1
:1012700010BD000008B50068B0F1804F12D10A48D7
:10128000C16941F00101C161C069002200F00100A3
:10129000009005211C20FFF7DDF9BDE808401C2067
:1012A000FFF7CAB908BD00000010024090F83D10D9
:1012B000012901D001207047022180F83D1001680A
:1012C000CA6842F00102CA6000680B49884208D02F
:1012D000B0F1804F05D00949884202D008498842C0
:1012E00004D1816801F00701062903D0016841F0AB
:1012F0000101016000207047002C01400004004003
:101300000008004070B5044690F83C00012817D052
:10131000012584F83C50022084F83D002068826852
:1013200022F0770222F47F4282600868502830D091
:101330000DDC20284DD005DC98B310283BD148E0C7
:10134000022070BD302844D0402834D139E06028D4
:1013500028D0702806D0B0F5805F2CD0B0F5005FA3
:1013600029D10AE0CB68D1E90121206801F03DFBD9
:101370002068816841F0770109E0CB68D1E901215B
:10138000206801F032FB2068816841F4804181606F
:1013900011E0CA684968206801F0DCFB5021206830
:1013A00007E016E0CA684968206801F0E4FB6021A4
:1013B000206801F024FB84F83D50002084F83C00B4
:1013C00070BDCA684968206801F0C4FB40212068EC
:1013D000EFE7226801461046EBE7704770B5044618
:1013E000006801694FF00005C943890715D4C16839
:1013F000C943890711D4E91E0161012020772068C3
:1014000080698007204602D0FFF7E7FF04E000F084
:10141000BFF8204600F06CF9257720680169C943C0
:10142000490717D4C168C943490713D46FF00401B1
:101430000161022020772068806910F4407F2046F7
:1014400002D0FFF7CAFF04E000F0A2F8204600F047
:101450004FF9257720680169C943090716D4C16887
:10146000C943090712D46FF00801016104202077F5
:101470002068C0698007204602D0FFF7AEFF04E075
:1014800000F086F8204600F033F9257720680169DE
:10149000C943C90617D4C168C943C90613D46FF03C
:1014A00010010161082020772068C06910F4407F96
:1014B000204602D0FFF791FF04E000F069F82046D3
:1014C00000F016F9257720680169C943C90708D1DA
:1014D000C168C943C90704D1891E0161204600F0D3
:1014E0008FF920680169C943090609D4C168C94355
:1014F000090605D46FF0800101612046FFF755FE13
:1015000020680169C943490609D4C168C94349062D
:1015100005D46FF040010161204600F07BF920689E
:101520000169C94389060BD4C168C943890607D438
:101530006FF0200101612046BDE87040FFF736BE24
:1015400070BD000000B585B00021009101910291AD
:10155000039100680B49884211D10B48816941F021
:10156000040181618069694600F004000490402014
:1015700000900220019003900448FEF7E5FE05B0BC
:1015800000BD0000000400400010024000080140BF
:10159000704770B5044690F83C000D4601280AD00B
:1015A000012084F83C0042B1042A18D0082A2AD02D
:1015B0000C2A4DD139E0022070BD206801F028FAD4
:1015C0002068816941F0080181612068816921F00A
:1015D00004018161206881692A69114311E0206852
:1015E00001F03EFA2068816941F400618161206860
:1015F000816921F480618161206881692A6941EAF9
:101600000221816124E0206801F056FA2068C16956
:1016100041F00801C1612068C16921F00401C16184
:101620002068C1692A69114311E0206801F070FA4D
:101630002068C16941F40061C1612068C16921F479
:101640008061C1612068C1692A6941EA0221C161E2
:10165000002084F83C0070BD10B5040003D094F85D
:101660003D0010B107E0012010BD002084F83C00CF
:10167000204600F01FF8022084F83D00211D20685C
:1016800001F070F9012084F8460084F83E0084F8E7
:101690003F0084F8400084F8410084F8420084F858
:1016A000430084F8440084F8450084F83D0000209D
:1016B00010BD000008B500680B49884212D10B48E4
:1016C000C16941F00201C161C069002200F002005D
:1016D000009005211D20FEF7BDFFBDE808401D203C
:1016E000FEF7AABF08BD0000000400400010024041
:1016F0007047000010B50446022249B104290ED0FB
:10170000082913D094F84100012816D0012010BDFB
:1017100094F83E000128F9D184F83E200FE094F8B7
:101720003F000128F2D184F83F2008E094F84000FF
:101730000128EBD184F8402001E084F84120012207
:10174000206801F045F90F492068884203D1426CB6
:1017500042F4004242642068884208D0B0F1804FD1
:1017600005D00949884202D00849884204D18168DD
:1017700001F00701062903D0016841F00101016071
:10178000002010BD002C0140000400400008004073
:1017900030B504460D460068002201F019F9174BD8
:1017A00041F2111120688A10984209D1036A0B4254
:1017B00006D1036A134203D1436C23F4004343640C
:1017C0002068036A0B4206D1016A114203D1016805
:1017D00021F00101016001203DB1042D08D0082D48
:1017E00009D084F84100002030BD84F83E00FAE7BB
:1017F00084F83F00F7E784F84000F4E7002C01404C
:1018000000680349884201D1FEF79EBE7047000080
:10181000002C01407047704770B50268044610689C
:10182000D168536910F00F0F52D003F0010501F495
:1018300090762E435FD0C20705D0CA0503D5E26B70
:1018400042F00102E263420705D5DA0703D0E26BFA
:1018500042F00202E263820705D5DA0703D0E26BA9
:1018600042F00402E263020707D501F020022A4396
:1018700003D0E26B42F00802E263E26B002A33D04D
:10188000800604D5880602D5204601F09CF9206820
:101890004069E16BC0F38010090700D428B32046EB
:1018A00001F083F92068416949061AD5416921F0A0
:1018B00040014161606BA0B12D494163606BFEF74F
:1018C000E5FC002810D0606B416BBDE87040084714
:1018D000830610D58B060ED52046BDE8704001F07A
:1018E00072B92046FFF797FF70BD2046FFF793FFC0
:1018F0000020E06370BD03062BD50B0629D594F8B4
:1019000039002128F6D1A068B0F5805F01D12069A7
:10191000B0B1206A411C2162216800784860E08CE7
:10192000401E0004000CE084E4D12068C16821F06E
:101930008001C1602068C16841F04001C16070BD94
:10194000206A0088C0F308005060206A801C206272
:10195000E5E74006F3D54806F1D5D168204621F0E9
:101960004001D160202184F8391000F02EF970BDBB
:101970009B2B000870B5040004D094F839000025B2
:1019800010B106E0012070BD84F83850204600F008
:1019900023F8242084F839002068C16821F400511C
:1019A000C160204601F056F92068016921F4904198
:1019B00001612068416921F02A0141612068C16804
:1019C00041F40051C160E563202084F8390084F8B7
:1019D0003A00002070BD000030B585B000240094AE
:1019E0000194029403940068184988422CD1184845
:1019F000816941F480418161816901F480410491F0
:101A0000816941F0040181618069124D00F0040098
:101A100004904FF400700090022001900320039086
:101A200069462846FEF790FC2815CDE90004694672
:101A300028460294FEF788FC002205212520FEF7A7
:101A400009FE2520FEF7F8FD05B030BD0038014045
:101A500000100240000801402DE9F84F044690F8BC
:101A60003A009A4616460D46202851D1EDB1E6B10E
:101A700094F8380001284BD0012084F83800002762
:101A8000E763222084F83A00FEF758FDA6858146D8
:101A9000E685A0684FF48058404501D1206938B1EF
:101AA0002E46002584F8387027E00120BDE8F88F25
:101AB0000026F7E74B46002220212046CDF800A063
:101AC00001F024F908B10320F0E726B1A0684045F1
:101AD0001BD038B108E020684068C0F3080025F842
:101AE000020B07E0206980B12068406800F07F00A9
:101AF00006F8010BE08D401EE085E08D0028D9D16D
:101B0000202084F83A000020D0E720684068EFE702
:101B10000220CBE7704700002DE9F843044690F817
:101B200039001F4616460D4620284CD1C5B1BEB11E
:101B300094F83800012846D0012084F838004FF08E
:101B40000008C4F83C80212084F83900FEF7F6FC38
:101B5000A6848146E684A068B0F5805F03D004E0E7
:101B60000120BDE8F883206928B12E465FF000050A
:101B700084F838800EE00026FAE78021204601F044
:101B8000C5F8A0B9AEB116F8010B21684860E08C29
:101B9000401EE084E08C4B464FF000020097002886
:101BA000EBD14FF04001204601F0B0F830B10320F6
:101BB000D7E735F8020BC0F30800E6E7202084F8E9
:101BC00039000020CDE70220CBE77047FEE7000098
:101BD00070B586B000241B480094019402940394CD
:101BE000816941F010018161816901F01001049166
:101BF000816941F020018161816901F02001049136
:101C0000816941F00401816180690F4E00F0040098
:101C1000049000223F213046FEF78BFC3F200090CD
:101C200001AA0120022582E8310069463046FEF70C
:101C30008BFBA8028DE8310069463046FEF784FB35
:101C400006B070BD001002400008014010B586B01B
:101C500000241148009401940294039404944FF0DA
:101C60008041059401600721C0E901144FF6FE711F
:101C7000C0E903148461FFF7CFFA4FF4805000905D
:101C800069460548FFF73EFB049404A90248059401
:101C9000FFF78EFA06B010BD140C002010B58AB004
:101CA000002407941C2168460894FEF7A0FA134804
:101CB000114901601121C0E9011440F6D831C0E991
:101CC00003148461FFF7C8FC079407A90B48089424
:101CD000FFF76EFA6020009040F2DC50CDE901047D
:101CE0000022694605480494FFF753FC0348FFF7B8
:101CF00029FC0AB010BD0000000400405C0C00206C
:101D0000FEE77047010901EB810100F00F0000EBD5
:101D10004100C0B27047002102E00A38C0B2491C3D
:101D20000A28FAD2090740EA116070472DE9F0410C
:101D300004460025C07B627BA37B42E0012A16D0CB
:101D4000032A14D0052A12D0072A10D0082A0ED050
:101D50000A2A0CD00C2A0AD0042A10D0062A0ED047
:101D6000092A0CD00B2A0AD0022A0DD028E01F2BFA
:101D70000CD30C2A05D101221346401C20E01E2B57
:101D800004D30123521C1BE01C2B02D203F10103DC
:101D900016E011D183B29E0710D16426B3FBF6F78B
:101DA00006FB173636B94FF4C876B3FBF6F706FBD9
:101DB00017331BB91D2303E01D2B01D1032201237F
:101DC0006D1C8D42BAD3D1B2E0736173DAB2A273E3
:101DD00000F057F82073BDE8F08170B50446FEF7B7
:101DE000ADFB05464FF47A7606E0FEF7A7FB401BF5
:101DF000B04201D9032070BD206840688006F4D548
:101E00002068416841F010014160002070BD000071
:101E100070B504460068416821F010014160FEF78A
:101E20008DFB05464FF47A7607E000BFFEF786FB90
:101E3000401BB04201D9032070BD20684068800675
:101E4000F4D5002070BD00000148FEF7B3BF0000CC
:101E5000000C00200168086A496A89B241EA004022
:101E60007047006881698AB2C1698BB2816989B2A1
:101E70008A4203D0C06961F31F40704743EA0240C1
:101E80007047F0B56424C1EBC1030927A5000726FC
:101E900003EB01130329B3FBF7F100F5FA601144DA
:101EA00001440AD2401EB0FBF4F201EB9001B0FBFA
:101EB000F5F0891A0844001D08E0B0FBF4F201EBCC
:101EC0009001B0FBF5F0891A0844801CB0FBF6F1D4
:101ED00006FB1100C0B2F0BD70B50D4606460024E9
:101EE000FFF77BFF48B93168280C08623168A8B257
:101EF00048623046FFF78CFF00B10124204670BDD8
:101F000070B50D4606460024FFF767FF48B93168F3
:101F1000280C88613168A8B2C8613046FFF778FFA5
:101F200000B10124204670BD0EB5724C4FF0010B7C
:101F30007048002269462430FEF75AFF0A2001F05B
:101F4000DDF86C48002201A92430FEF778FF0A2052
:101F500001F0D4F80025BFE0C5EBC50C0CEB040084
:101F60009DF80320C17892468946914201D101270C
:101F700000E0002701799DF80130994201D101224A
:101F800000E00022174082789DF80260B24202D140
:101F90004FF0010801E04FF0000817EA080F04D1E4
:101FA00047799DF8008047457ED114F80C709DF864
:101FB00004C0674578D147789DF805C0674573D15F
:101FC0008779022F06D0032F1ED0042F59D0052F5A
:101FD00057D152E028460BE0C0EBC0012144401C21
:101FE000D1F807200A60B1F80B208A804A7B8A71F9
:101FF00094F82310491E8142EEDC94F82300401E21
:1020000084F823006D1E3CE0042B16D0062B14D060
:10201000092B12D00B2B10D0012B11D0032B0FD07A
:10202000052B0DD0072B0BD0082B09D00A2B07D07E
:102030000C2B08D0022B10D023E01E2E18D014E059
:102040001F2E15D011E01F2E0FD180F804B080F89C
:1020500002B009F10101C17013E05FEA8A7302D096
:102060001C2E05D001E01D2E02D0521C827008E00B
:10207000491C017180F802B003E00C2936D0491CDC
:1020800001711D4E8DF808B0C823002202A9306BE3
:1020900001F034F94FF0FF31706B01F08DF900F071
:1020A00039FF0021084600E015E000F03EFF13A0D4
:1020B00000F0A4FF0021012000F037FF94F8230076
:1020C00000F062FF40F6B83001F018F800F022FF8F
:1020D000706B01F0E7F96D1C94F82300A8423FF7FC
:1020E0003BAF40F6B83001F009F821E780F804B0C2
:1020F000C7E70000DC0B002000000020414C4152EB
:102100004D412044455445435445440008B50B4FC8
:102110000B4D4FF40066002431463846FEF704FAB2
:10212000012807D18DF80040C82300226946286B9A
:1021300001F0E4F80A2000F0E1FFEDE700080140BB
:1021400000000020012000F0D9FFFBE71CB501F0E2
:102150000DF8044600F0DEFE264D4FF0FF36314606
:10216000686B01F029F90021084600F0DEFE00222C
:1021700001A92148FEF763FE9DF8040000F032FF3C
:102180001EA000F03BFF9DF8050000F02BFF1BA0F8
:1021900000F034FF9DF8060000F024FF002269469D
:1021A0001548FEF725FE0021012000F0BEFE9DF837
:1021B000020000F017FF12A000F020FF9DF80100C0
:1021C00000F010FF0EA000F019FF9DF8030000F0D2
:1021D00009FF0CA000F012FF9DF8000000F01CFFAA
:1021E000686B01F05FF904F57A74204600F0A0FFF7
:1021F000B5E7000000000020000C00203A000000BD
:102200002E0000002000000088B001208DF80000A2
:1022100000F060FBC04800680027401CC5B21C21CC
:1022200001A8FDF7E4FF0026DFF8F0B2DFF8F09236
:10223000DFF8F08234464FF0600A00231A46694600
:10224000DBF8300000F0E2FF9DF80000A0B30021B1
:10225000B348FFF79DFA1E2000F050FFB248D8F8AF
:10226000001050F836006843B1FBF0F1AC48C9F8F3
:102270000C10FFF7F1F9AC48CDF804A0002250F89B
:10228000360068430102D8F800000594B0FBF1F075
:10229000CDE9020401A9A248FFF77BF90021A0487B
:1022A000FFF728FAA04800EBC60040681E3800F08F
:1022B00025FF761C3F2EC0D300219948FFF768FA0E
:1022C000DFF858B24FF0FF3300226946DBF83000E8
:1022D00000F09CFF9DF80000002850D0032F01D390
:1022E00000270AE07F1C17F0FF0706D0012F47D018
:1022F000022F7DD0032F42D1C6E00026874800235D
:102300001A466946006B00F081FF9DF80000002826
:10231000E3D000218248FFF73BFA0A2000F0EEFEEE
:10232000DFF8F8B1D8F800100BF13C0B5BF8360081
:102330006843B1FBF0F17A48C9F80C10FFF78CF94B
:10234000CDF804A05BF83600002268430102D8F8FB
:1023500000000594B0FBF1F0CDE9020401A970483A
:10236000FFF717F900216E48FFF7C4F90BEBC60021
:1023700040680A3800F0C2FE761C5A2EBED3C2E076
:102380000026664800231A466946006B00F03EFFAF
:102390009DF80000002835D000216148FFF7F8F9CA
:1023A0000A2000F0ABFEDFF880B1D8F800105BF82F
:1023B00036006843B1FBF0F15948C9F80C10FFF73B
:1023C0004BF9CDF804A05BF8360000226843010207
:1023D000D8F800000594B0FBF1F0CDE9020401A9A2
:1023E0004F48FFF7D6F800214D48FFF783F900E08A
:1023F00009E00BEBC60040680A3800F07FFE761C4F
:102400003F2EBED37FE00026444800231A4669468B
:10241000006B00F0FBFE9DF80000002873D0002147
:102420003F48FFF7B5F90A2000F068FEDFF8FCB07E
:10243000D8F800105BF836006843B1FBF0F138487B
:10244000C9F80C10FFF708F9CDF804A05BF83600C6
:10245000002268430102D8F800000594B0FBF1F0B7
:10246000CDE9020401A92E48FFF793F800212C487A
:10247000FFF740F90BEBC60040680A3800F03EFE5B
:10248000761C802EC0D33EE00026244800231A4646
:102490006946006B00F0BAFE9DF8000098B3002179
:1024A0001F48FFF775F90A2000F028FEDFF880B01A
:1024B000D8F800105BF836006843B1FBF0F118481B
:1024C000C9F80C10FFF7C8F8CDF804A05BF8360087
:1024D000002268430102D8F800000594B0FBF1F037
:1024E000CDE9020401A90E48FFF753F800210C487A
:1024F000FFF700F90BEBC60040680A3800F0FEFD5C
:10250000761C4A2EC1D300210548FFF741F901206E
:1025100000F0F4FDD4E60000280400400000002094
:102520005C0C0020600B00200C0300200405002040
:10253000040900201CB5224DE86A00F01FFF214C61
:102540004FF0FF36334600226946E86A00F05EFE2F
:1025500028B100F0DFFC1CA000F050FD1EE094F854
:102560002310052910D2C1EBC1002044009901605D
:10257000BDF8041081809DF80610817194F8230045
:10258000401C84F8230009E0002005E0C0EBC002F5
:10259000224492793AB1401C8142F7DC4FF47A70C0
:1025A00000F0ACFDCEE7C0EBC00020440099016014
:1025B000BDF8041081809DF806108171EEE70000DF
:1025C00000000020DC0B00204572726F7220616CED
:1025D00061726D20717565756500000008B50D4C60
:1025E0004FF0FF354FF47A762B4600226946A06AF9
:1025F00000F00CFE28B100F08DFC07A000F0FEFCFE
:1026000004E0002269460948FEF7FAFC304600F073
:1026100075FDE9E7000000204572726F7220646169
:10262000746520717565756500000000000C002060
:1026300008B50D4C4FF0FF354FF47A762B4600224B
:102640006946606A00F0E2FD28B100F063FC07A073
:1026500000F0D4FC04E0002269460948FEF732FD90
:10266000304600F04BFDE9E7000000204572726F34
:10267000722074696D6520717565756500000000D4
:10268000000C00208CB000255C4C8DF81050069595
:1026900057A74FF47A764FF0FF380595C8230122EB
:1026A00004A95748FFF7D8F99DF810000028F5D085
:1026B000012827D0022853D00328EFD13346062221
:1026C00069464F48FFF7C8F98DF8105000286DD0C3
:1026D0004146606B00F070FE00F01CFC49A000BF9A
:1026E00000F08CFC0021012000F01FFC49A000F04C
:1026F00085FC304600F002FD00F00CFC606B00F041
:10270000D1FECBE73346032206A93D48FFF7A4F9E3
:102710008DF8105038B14146606B00F04DFE00F06E
:10272000F9FB3FA0DCE79DF818008DF828009DF824
:1027300019008DF829009DF81A008DF82A00C82389
:1027400000220AA9606A00F0D9FDC82000F0D6FC7A
:102750004FF4FA63042239462948FFF7DDF99DE773
:102760003346042205A92648FFF776F98DF8105064
:1027700038B14146606B00F01FFE00F0CBFB2CA08F
:10278000AEE79DF814008DF826009DF815008DF831
:1027900025009DF816008DF827009DF817008DF88C
:1027A0002400C823002209A9A06A1BE09DF80000AC
:1027B0008DF80A009DF801008DF80C009DF80200CC
:1027C0008DF80B009DF803008DF808009DF80400BB
:1027D0008DF809009DF805008DF80E00C823002231
:1027E00002A9E06A00F08AFD142000F087FC55E79A
:1027F0005472616E736D6974000000000000002067
:10280000A40C00204572726F722067657420414CE1
:1028100041524D0066726F6D207561727400000048
:102820004572726F72206765742054494D450000EF
:102830004572726F722067657420444154450000F0
:1028400010B5502080F31188BFF34F8FBFF36F8F07
:1028500002F034FA18B104494FF0805008600020AB
:1028600080F3118810BD000004ED00E070B594B055
:1028700028216846FDF7BBFC14210AA8FDF7B7FC28
:1028800000240F940520009001A910941194129433
:102890004FF48030012581E8310002260495CDE90E
:1028A00007604FF4E01009906846FEF7F1F80F203A
:1028B000CDE90A06A802CDE90C4002210AA80E942F
:1028C000FDF7DAFF2802CDE90F500FA8FDF75EFFF4
:1028D00014B070BD144910B54868144A10F00C03C8
:1028E000134803D0042B01D0082B09D0026049689B
:1028F000104AC1F30311515C0268CA40026010BD66
:102900004A684B6802F470124FF0020413F4803FDF
:1029100004EB924202D04B689B0301D5064B00E0CA
:10292000024B5A43E2E700000010024000127A0016
:10293000600B00203C52000800093D007047000079
:102940000148FEF74BBD0000E40C00200148FEF7F3
:1029500045BD0000140C00200148FEF73FBD0000FB
:102960005C0C0020F0B50268164B174C174D4FF069
:102970008047984205D0B84203D0A04201D0A84277
:1029800003D122F070064A683243984205D0B8421B
:1029900003D0A04201D0A84203D122F44074CA68F7
:1029A00022434C6922F08002224302608A68C2629C
:1029B0000A688262984201D109690163012141617B
:1029C000F0BD0000002C0140000400400008004061
:1029D00010B501F01F030121046A99408C43046281
:1029E000016A9A401143016210BD10B5846842EA41
:1029F000032224F47F440A432243826010BD82688C
:102A000022F070020A4342F0070181607047000023
:102A100030B5026A22F001020262026A43688469E8
:102A200024F073050C682C4322F002058A682A43BF
:102A30000A4DA8420BD122F00805CA6823F440735E
:102A40002A434D6922F004021D438B692B434360E6
:102A5000846149684163026230BD0000002C01407E
:102A600030B5026A22F010020262026A4368846989
:102A70000D6824F4E64444EA05248D6822F020021F
:102A800042EA05120B4DA8420ED1CD6822F0800219
:102A900042EA05124D6923F4406343EA85038D69D8
:102AA00022F0400243EA8503436084614968816300
:102AB000026230BD002C014030B5026A22F48072FF
:102AC0000262036A4268C46923F4007324F0730548
:102AD0000C682C438D6843EA05230C4DA8420ED1A7
:102AE000CD6823F4006343EA05234D6922F4405284
:102AF00042EA05128D6923F4806342EA05124260BE
:102B0000C4614968C163036230BD0000002C01400C
:102B100030B5026A22F480520262046A4268C369D4
:102B20000D6823F4E64343EA05238D6824F400543A
:102B300044EA0534064DA84204D14D6922F480428E
:102B400042EA85124260C36149680164046230BD93
:102B5000002C014010B5036A046A24F001040462E9
:102B6000846924F0F00444EA021423F00A020A43C0
:102B70008461026210BD10B5036A23F01003036282
:102B80008369046A23F4704343EA023224F0A00309
:102B900043EA01118261016210BD10B5406A002153
:102BA000C185C184FEF737FE10BD0168CA6822F4F2
:102BB0009072CA6001684A6922F001024A612021CC
:102BC00080F83A10704710B590F83A10222901D0D9
:102BD000022010BD82684FF480539A4201D10169EE
:102BE00021B1816A9A421BD04AB10AE00268816A27
:102BF0005268C2F308020A80816A891C08E00269EF
:102C000072B10268526802F07F020A70816A491C40
:102C10008162C18D491E0904090CC18503D016E0EB
:102C200002685268F1E70168CA6822F02002CA60AF
:102C30000168CA6822F48072CA6001684A6922F099
:102C400001024A61202180F83A10FEF763FF00205C
:102C500010BD000070B5044600680169E26821F407
:102C60004051114301612169A0680843616908432B
:102C70002168CA6841F20C639A430243CA60206823
:102C80004169A26921F44071114341611E492068E4
:102C9000884202D1FDF7B6FE01E0FDF7A3FE00EB8E
:102CA000C00101EB0012606864218000B2FBF0F308
:102CB000B3FBF1F36FF018067343B2FBF0F5B2FB10
:102CC000F0F605EB8305322303EB0515B5FBF1F5B3
:102CD000B6FBF1F605F0F00505EB0615B2FBF0F6D4
:102CE000B2FBF0F0B0FBF1F06FF01802504306EBCE
:102CF000800003EB0010B0FBF1F0216800F00F0042
:102D00002844886070BD0000003801402DE9F04182
:102D1000984617460E460446069D1DE0681C1BD0CB
:102D20002DB1FDF70BFCA0EB0800A84214D92068D8
:102D3000C16821F4D071C1602068416921F00101AE
:102D40004161202084F8390084F83A00002084F89A
:102D500038000320BDE8F0812068006836EA0000F2
:102D600004D00020B842D9D00020F3E70120F9E7D1
:102D70000148FEF751BD0000A40C0020FEE7090742
:102D8000090E002804DB00F1E02080F800147047F1
:102D900000F00F0000F1E02080F8141D704702E001
:102DA00008C8121F08C1002AFAD1704770470020D6
:102DB00001E001C1121F002AFBD17047FDF7CCFBD7
:102DC000FFF754FDFEF704FF444843490024016027
:102DD0004FF41651C0E901140C21C460C0E904414C
:102DE0008461C461FEF7C6FD3C483D49A4380160DA
:102DF000611EC0E90114FEF78FF8FEF74FFFFEF7E2
:102E000025FF00F09BF800F0C5F9364800F00AFBFA
:102E1000354C60633348103000F004FB314A032125
:102E2000A063603A084600F02FFA2E4A6062483AE2
:102E30000421032000F028FA2A4AA062303A072130
:102E4000032000F021FA274AE062183A012103200A
:102E500000F01AFA2063254A0021254800F050FBB3
:102E6000224A206024320021224800F049FB1F4AF8
:102E7000606048320021204800F042FB1B4AA060FD
:102E80006C3200211D4800F03BFB184AE060903294
:102E900000211B4800F034FB144A2061B4320021A9
:102EA000184800F02DFB0F4A6061CC3A002116480B
:102EB00000F026FB0B4AA061A83A0021134800F05D
:102EC0001FFB084AE061843A0021114800F018FB1A
:102ED000206200F07BF9FEE700380140A40C0020DE
:102EE000002800401C520008000000207850000814
:102EF00045210008852600084D21000831260008DC
:102F0000DD250008291F00083525000809220008D2
:102F10000D21000810B50021012000F0BFF80021AC
:102F2000BDE81040022000F0B9B800B140200843CD
:102F300040F08000002100F0B1B8000010B5114C45
:102F4000206820F03F0020603220FDF7EBF9206878
:102F500020F010002060206820F020002060022077
:102F6000206000F07FF80021282000F097F8002171
:102F70000C2000F093F80021BDE81040062000F07E
:102F80008DB800000C0801407FB501460A2301E01E
:102F900091FBF3F10929FBDC00216A4609E000BF3F
:102FA00090FBF3F403FB140490FBF3F0303454541F
:102FB000491C0928F4DC303050540020491C01EB36
:102FC000D173505407E00D1A1544145C15F8016DC7
:102FD00016542C70401CB0EB630FF4DB104600F06D
:102FE0000DF87FBD10B504460A2802DA0020FFF76D
:102FF000CBFF2046BDE81040FFF7C6BF10B5044622
:1030000003E0012100F04AF8641C002C02D0207873
:103010000028F6D110BD0000072814D2DFE800F028
:103020000406080A0C0E100007A00AE007A008E03A
:1030300007A006E007A004E007A002E007A000E068
:1030400007A0FFF7DBBF704753554E004D4F4E00B2
:1030500054554500574544005448550046524900D0
:103060005341540010B50C4C206820F02000206023
:103070000120FDF757F9206840F020002060012072
:10308000FDF750F9206820F020002060BDE81040D6
:103090000120FDF747B900000C08014070B5164C3F
:1030A00006460D46206820F03F002060206840EA78
:1030B000161020602068012917D020F01000206031
:1030C000FFF7D0FF206820F03F002060206806F066
:1030D0000F01084320602068012D09D020F0100066
:1030E0002060BDE87040FFF7BDBF40F01000E6E78C
:1030F00040F01000F4E700000C08014010B5EFF3B9
:10310000058149B9EFF3108131B9084909680229ED
:1031100005D1EFF3118111B16FF0050403E0002434
:1031200008B100F0A7FF204610BD0000B40B00203E
:1031300038B50546EFF3058048B9EFF3108030B994
:1031400009480068022805D1EFF3118010B16FF033
:10315000050407E0002401F0A3FD291A0090684649
:1031600000F0AEFF204638BDB40B0020EFF3058021
:1031700048B9EFF3108030B905480068022804D13F
:10318000EFF3118008B101F091BD01F089BD00009D
:10319000B40B0020EFF3058058B9EFF3108040B96D
:1031A00009490868022801D030B109E0EFF3118025
:1031B00030B16FF0050070470120086000207047B3
:1031C0004FF0FF3070470000B40B002010B5EFF354
:1031D000058060B9EFF3108048B90B4908680228F0
:1031E00002D0012806D00BE0EFF3118040B16FF060
:1031F000050010BD0220086001F032F8002010BD6B
:103200004FF0FF3010BD0000B40B0020F8B51D4694
:103210006FF003026FF002064FF00004EFF3058336
:103220004BB9EFF3108333B9154B1B68022B17D141
:10323000EFF31183A3B1F0B1E9B1E5B90022009237
:103240006A4601F05DFB012817D10098B0B10D4925
:103250004FF080500860BFF34F8FBFF36F8F0DE0CA
:1032600048B141B12A4601F0AFFA012806D025B194
:103270006FF0010402E0144600E034462046F8BD39
:10328000B40B002004ED00E0F8B514464FF0000543
:10329000EFF305826ABBEFF3108252BB164A126845
:1032A000022A02D1EFF311821ABB10B309B3ACB1F9
:1032B000D4E902326BB1502A1BD32269CAB16769C3
:1032C00000FB01F6B74214D30025009501F0D6F8B3
:1032D00007E072B9226962B9626952B9002201F04D
:1032E000A9F8050005D00CB1216800E0002100F02C
:1032F0008BFE2846F8BD0000B40B0020F8B51D4633
:103300006FF003026FF002064FF00004EFF3058345
:103310004BB9EFF3108333B9164B1B68022B18D14E
:10332000EFF31183ABB100B3F9B1F5B90022134645
:1033300000926A4601F0CAF9012818D10098B8B184
:103340000D494FF080500860BFF34F8FBFF36F8F70
:103350000EE050B149B100232A4601F007F90128D7
:1033600006D025B16FF0010402E0144600E03446B7
:103370002046F8BDB40B002004ED00E010B5EFF3DB
:10338000058149B9EFF3108131B90A490968022969
:1033900005D1EFF3118111B16FF0050404E028B1FC
:1033A0000024214601F09EF8204610BD6FF0030472
:1033B000FAE70000B40B00202DE9F0410D4601466C
:1033C00021F0010001F001014FF00004EFF305824C
:1033D0004AB9EFF3108232B9114A1268022A05D1B4
:1033E000EFF3118212B16FF0050416E048B1002925
:1033F0006FF001066FF00207294608D001F08AFB42
:1034000007E06FF0030408E035B1344605E001F051
:10341000C5FA0128F8D100E03C462046BDE8F0811D
:10342000B40B002070B505464FF00004EFF30580A3
:10343000A0BBEFF3108088BB19480068022802D1B6
:10344000EFF3118050BB0DB1686800E00020C107A8
:1034500001D0012600E0002600071FD46DB1D5E998
:10346000021021B1502819D31EB1042002E020B16E
:1034700014E0012000F0D1FF05E00EB1042000E0CF
:10348000012000F0BFFF040008D00DB1296800E062
:10349000002100F0B9FD0EB144F00104204670BDDA
:1034A000B40B002070B5014621F0010001F00101CC
:1034B0004FF00004EFF305824AB9EFF3108232B9FE
:1034C0000E4A1268022A05D1EFF3118212B16FF091
:1034D000050411E028B16FF0020529B101F054F99B
:1034E00007E06FF0030407E000231A46194601F0D5
:1034F0003DF8012800D02C46204670BDB40B0020BA
:10350000F0B585B04FEA01034FF00004EFF30581F9
:103510000394A1BBEFF3108189BB214909680229FB
:1035200002D1EFF3118151BB48B3802618218DF8E9
:10353000104004AD42B3176807B13D4697691FB10B
:1035400039467F1E382F02D21779FF0702D000209C
:1035500005B0F0BD576907B1BE08D2F808C0BCF18C
:10356000000F0DD0D4685C2C18D312693AB137B172
:103570008DE806103246294601F053FB03900DE01A
:10358000D7685FB912694AB903AACDE90012B2B28D
:10359000294601F019FB012800D003940398D7E7CE
:1035A000B40B00202DE9F041134C0F460546666927
:1035B0002068001D00F02EFC681C07D137B121687F
:1035C000BDE8F0410D48091D00F074BC2068354489
:1035D000B5424560216805D2A068BDE8F041091DEB
:1035E00000F050BC6068091D00F04CFC206B854267
:1035F00000D22563BDE8F081640B00201C1200207E
:103600002DE9F041054600F061FC2D4C2069401C7D
:10361000206120682B4F10B1E06930B32BE02560AA
:103620002069012827D1002606EB860007EB8000E1
:1036300000F01AFC761C382EF6D3234800F014FC58
:103640002148143000F010FC1F48283000F00CFC1A
:103650001D483C3000F008FC1B48503000F004FCD2
:10366000194860601430A06005E02068E96AC06A0B
:10367000884200D82560E06A401CE0626864E86A1D
:10368000A169884200D9A06100EB800007EB8000AF
:10369000291D00F00FFC00F039FCE06900280CD077
:1036A0002068E96AC06A884207D208494FF0805012
:1036B0000860BFF34F8FBFF36F8FBDE8F08100004C
:1036C000640B00206C0D0020CC11002004ED00E004
:1036D00038B500F0FBFB104CA068C8B90F4800F0EB
:1036E000C3FB0E48143000F0BFFB0C4820601430C0
:1036F00060600A4B00202833009003F15002102133
:103700000A2000F0BBFEA06010B105A100F07CFC17
:10371000BDE8384000F0FABBA00B002030120020BA
:10372000546D72510000000030B4026C0B46002A48
:103730000BD0C1681144C1604468A14201D3016843
:10374000C16030BC1846FCF739BD30BC70472DE96C
:10375000F041856B174604460026026C82B1C7B162
:10376000E068FCF72BFDE168206C091AE160226833
:10377000914202D26168081AE060022F16D017E069
:103780002068A8B9606801F0FDFA06460020606074
:103790000EE0A068FCF712FD216CA0680844A06050
:1037A0006168884204D32068A06001E005B16D1E05
:1037B0006D1CA5633046BDE8F08110B5044690F855
:1037C000590058B101280CD002280FD0502080F3A6
:1037D0001188BFF34F8FBFF36F8FFEE7206B00F0B0
:1037E000A9FB2046BDE8104000F0A4BB10BD0000BE
:1037F00010484FF40051420706D0C01D0D4920F07B
:103800000700411AC1F500510B4A00230144C2E9E7
:1038100000030839103A21F0070111604B600B607A
:103820000B1AC0E9001393604FF000405360D06062
:1038300070470000001A0020C80B0020144E154CE1
:10384000A6F29C474FF08058DFF84C9012E000BF82
:1038500000F03CFBF068C568281D00F0DBFA206929
:10386000401E2061E068401EE06000F04FFB2846EB
:10387000FFF7A3FFE0680028EAD138680128F9D9EA
:10388000C9F80080BFF34F8FBFF36F8FF2E70000DE
:1038900008120020640B002004ED00E0002807D08F
:1038A0000021416001600B460A46C16000F05EBE27
:1038B0007047000070B51D46049C51B1C4F800204B
:1038C000C4E90F010121204600F00CFE84F84C50A1
:1038D00070BD2460F4E72DE9F0470E46DDE9098468
:1038E0001746824691009946089DA522206BFCF759
:1038F00077FC6FF00301206B01EB8701084420F097
:103900000707780707D0502080F31188BFF34F8F47
:10391000BFF36F8FFEE72218315C82F83410315C00
:1039200011B1401C1028F6D3002684F84360382DCE
:1039300000D33725E562C4E91356201D00F09FFA35
:1039400004F1180000F09BFA2461C5F138006462AC
:10395000A061666584F858604A465146384600F0D2
:1039600047FA2060B8F1000F01D0C8F80040BDE868
:10397000F087000030B5114900E011460A68824224
:10398000FBD34B685C18844203D1406818444860FC
:10399000084643681C18944209D1084C103C24681E
:1039A000A24209D052681A4442600A681268026052
:1039B000814200D0086030BD0460F9E7C80B0020E8
:1039C00070B5002441600B4D0061914206D8D11AB8
:1039D0008269914206D2011D686807E09A4203D2CB
:1039E000994201D3012403E0011D286800F04AFA3E
:1039F000204670BDA00B002010B5044600F066FA0A
:103A0000A06B28B15FF0000400F080FA204610BDE2
:103A10000124F9E730B589B0304D55E0049800280D
:103A200006DADDE90601059A9047049800284BDB89
:103A3000069C606910B1201D00F0ECF902A800F0AE
:103A4000B9F8024604980A283ED2DFE800F00505DE
:103A5000053D263705053D260598A1690346014425
:103A60002046FFF7ADFF00B3616A20468847E06952
:103A7000012829D1002000900598A169002342184F
:103A80001946204601F0C4FA78B9502080F3118815
:103A9000BFF34F8FBFF36F8FFEE70598A06128B18A
:103AA000811813462046FFF78BFF0DE0502080F36E
:103AB0001188BFF34F8FBFF36F8FFEE794F82C0090
:103AC00010B9204600F036FA002204A9A86800F0D8
:103AD0007BFE0028A2D109B030BD0000A00B002061
:103AE0002DE9FC410F46054600F0FEFB01A800F061
:103AF00061F80446019818B101F0F8F9BDE8FC81BD
:103B0000224EAFB170680068A8B30027291B3A465F
:103B1000B06800F08DFA01F0E9F90028EED11C49F7
:103B20004FF080500860BFF34F8FBFF36F8FE5E712
:103B3000A542EBD801F0DAF930682746C068C468BE
:103B4000201D00F067F9E069012810D1A0692B461B
:103B500041193A462046FFF733FF40B100200346A3
:103B6000014600902A46204601F052FA20B1616ACF
:103B700020468847C2E707E0502080F31188BFF352
:103B80004F8FBFF36F8FFEE70127BFE7A00B002029
:103B900004ED00E006484168096829B14168C96838
:103BA000C9684968016370474FF0FF31FAE70000C8
:103BB000640B002070B5054601F072F8064E04460D
:103BC0003069844203D200F009F8012000E00020AF
:103BD00028602046346170BDA00B0020F8B5194D57
:103BE0001FE0C068C4680668201D00F013F9616A10
:103BF00020468847E069012813D1A0693044B042CB
:103C000006D924616060211D286800F03BF908E0B6
:103C100000200346014600903246204601F0F8F9A4
:103C200038B1286801680029DBD16968C5E900104E
:103C3000F8BD502080F31188BFF34F8FBFF36F8F13
:103C4000FEE70000A00B002008484068401C4FF031
:103C5000500080F3118804D0BFF34F8FBFF36F8FF4
:103C6000FEE7BFF34F8FBFF36F8FFEE7D00B00204F
:103C7000074C2068016841B1C0680021D0F80000FD
:103C8000FFF72EFFFFF7C6FEF3E701210020F7E75D
:103C9000A00B00202DE9F041044600F017F994F93B
:103CA000455004F1240609E0606A48B1304601F04D
:103CB000E5F808B100F052FA6D1E6DB2002DF3DC8C
:103CC0004FF0FF3684F8456000F020F900F0FEF870
:103CD00094F9445004F1100709E0206948B13846CE
:103CE00001F0CCF808B100F039FA6D1E6DB2002D6C
:103CF000F3DC84F84460BDE8F04100F007B900004F
:103D00002DE9F0410546002700F0EEFA314E30680B
:103D100008B9FFF76DFDF06805424BD1C5B3083512
:103D200068070ED005F00700C0F1080005446807D9
:103D300007D0502080F31188BFF34F8FBFF36F8FF0
:103D4000FEE72DB37068854234D822481030014612
:103D50000C6801E020460C466168A94202D2216845
:103D60000029F7D131688C4224D0076821680160AE
:103D700060680837411B10290FD96019420708D025
:103D8000502080F31188BFF34F8FBFF36F8FFEE792
:103D900010E041606560FFF7EDFD61687068401AF2
:103DA0007060B268904200D2B060F06801430020B9
:103DB000C4E9000101F09AF8780707D0502080F399
:103DC0001188BFF34F8FBFF36F8FFEE73846BDE812
:103DD000F0810000B80B00200449086818B1086899
:103DE000026D521C0265086870470000640B0020D9
:103DF00010B5031F4FF080741C601B1F21F00101E0
:103E00001960191F024B0B60143940380A6010BD4D
:103E1000493C0008D0E9013201699A60D0E90123E8
:103E20005A604A68824201D182684A600022026177
:103E30000868401E0860086870470000034B036074
:103E400003F15C0008608020106070474813002078
:103E5000044B036003F15C0008604FF48070106055
:103E600070470000A415002000F108014FF0FF3258
:103E7000C0E90112C16001610021016070470021A9
:103E80000161704730B50B685A1C02D000F108027E
:103E900002E0026904E02246546825689D42FAD98E
:103EA00053684B6099608A60516008610168491CE1
:103EB000016030BD42684A6093688B6093685960C6
:103EC000916008610168491C01607047502080F3CF
:103ED0001188BFF34F8FBFF36F8F0A494868401CAA
:103EE000486001280CD10848006810F0FF0F07D087
:103EF000502080F31188BFF34F8FBFF36F8FFEE721
:103F000070470000D00B002004ED00E0084948682D
:103F100028B1401E486001D180F3118870475020BD
:103F200080F31188BFF34F8FBFF36F8FFEE7000060
:103F3000D00B002070B5002827D0144DA0F1080444
:103F40006168E868014207D1502080F31188BFF30F
:103F50004F8FBFF36F8FFEE722683AB1502080F396
:103F60001188BFF34F8FBFF36F8FFEE7814361600E
:103F700000F0BAF960686968084468602046FFF795
:103F8000F9FCBDE8704000F0B1BF70BDB80B002077
:103F90004FF0E02000210161816105494FF47A7200
:103FA0000968B1FBF2F1491E4161072101617047C7
:103FB000600B002010B5FCF7EBF8114910280ED368
:103FC00000F1E02090F8F0030A78904207D25020E8
:103FD00080F31188BFF34F8FBFF36F8FFEE709485F
:103FE0000068896800F4E060884207D9502080F3B7
:103FF0001188BFF34F8FBFF36F8FFEE710BD000036
:10400000D00B00200CED00E010B5084B002200BFE3
:1040100053F832401CB1521C082AF9D310BD43F8A2
:10402000321003EBC201486010BD00002C0D0020CF
:1040300070B515460E460446FFF748FF94F9441044
:104040000020491C01D184F8440094F94510491C12
:1040500001D184F84500FFF759FFA06B28B92A4623
:10406000314604F1240000F097F82046BDE8704086
:10407000FFF710BE10B5020014D00F48806B38B1A6
:10408000502080F31188BFF34F8FBFF36F8FFEE78F
:1040900000F02AF900211046FFF784FA00F026FF0D
:1040A000002807D105494FF080500860BFF34F8FBB
:1040B000BFF36F8F10BD0000640B002004ED00E023
:1040C00070B50D4604000BD095B11E4A906BB8B187
:1040D000502080F31188BFF34F8FBFF36F8FFEE73F
:1040E000502080F31188BFF34F8FBFF36F8FFEE72F
:1040F000502080F31188BFF34F8FBFF36F8FFEE71F
:1041000000F0F2F8526923685919934204D98B429E
:104110000AD9914202D807E08B42FAD9881A216065
:104120000021FFF73FFA00E0216000F0DFFE0028E9
:1041300007D105494FF080500860BFF34F8FBFF3A0
:104140006F8F70BD640B002004ED00E002498A6AA5
:104150000260496941607047640B002001490120F9
:1041600048627047640B002010B50C4650B10949F5
:1041700009681831FFF786FE2046BDE8104001218E
:10418000FFF710BA502080F31188BFF34F8FBFF3B1
:104190006F8FFEE7640B002070B514460D4668B1C2
:1041A0000A4909681831FFF785FE0CB14FF0FF3559
:1041B00021462846BDE87040FFF7F4B9502080F34F
:1041C0001188BFF34F8FBFF36F8FFEE7640B0020A2
:1041D00070B504003ED0226DA2B1E06C884200D3DD
:1041E0000146E06A884235D0012A33D11A4D2A6847
:1041F00094420FD1502080F31188BFF34F8FBFF34B
:104200006F8FFEE7502080F31188BFF34F8FBFF30D
:104210006F8FFEE7E162A269002A02DBC1F138017B
:10422000A1610E4E00EB8000616906EB80008142C7
:1042300010D1201DFFF7EEFDE06AA969884200D980
:10424000A86100EB800006EB8000211DBDE87040F6
:10425000FFF730BE70BD0000640B00206C0D002025
:1042600030B587B00024039405AA04A903A80494D8
:10427000FFF7E4FDDDE903010094CDE9011000231F
:1042800015A11748059A00F0CCFC164D002868636C
:104290001FD000F08DFE012809D0401C19D15020FC
:1042A00080F31188BFF34F8FBFF36F8FFEE750206D
:1042B00080F31188BFF34F8FBFF36F8F4FF0FF3044
:1042C00028630120E8616C6107B0BDE8304000F070
:1042D00045B807B030BD000049444C45000000001F
:1042E0003D380008640B00200248816B491C816343
:1042F00070470000640B0020164810B5816B11B1A7
:104300000121416210BD002141628169124A01E030
:10431000B9B1491E01EB810352F82330002BF7D0CD
:1043200001EB810302EB830202F1080453685B682E
:104330005360A34201D15B685360DA680260816117
:1043400010BD502080F31188BFF34F8FBFF36F8FE4
:10435000FEE70000640B00206C0D00201CB5264910
:1043600008780190FF20087008788DF800009DF80B
:1043700000009DF8002000F0F000904207D050208F
:1043800080F31188BFF34F8FBFF36F8FFEE79DF867
:1043900000001A4B00F0500018700720986005E0EC
:1043A0009DF8002052008DF80020401E9DF800204E
:1043B0001206F5D49860032807D0502080F31188A6
:1043C000BFF34F8FBFF36F8FFEE74FF440709860DD
:1043D000019808700A48016841F4700101600168A1
:1043E00041F070410160FFF7D3FD00205860FBF7FA
:1043F00099FE00201CBD000000E400E0D00B00206E
:1044000020ED00E010B502460021012000F012F876
:104410000446FFF743FA204610BD38B50B4600228C
:1044200000901146012000F029F80446FFF736FA03
:10443000204638BDF8B517460E46050014D0DEB14B
:1044400005FB06F05030FFF75BFC04000AD00020AB
:1044500084F8460004F150023B4631462846009459
:10446000FFF728FA2046F8BD502080F31188BFF3EB
:104470004F8FBFF36F8FFEE70020E3E738B5049D51
:1044800018B153B1CAB181B120E0502080F3118836
:10449000BFF34F8FBFF36F8FFEE7502080F311887B
:1044A000BFF34F8FBFF36F8FFEE7502080F311886B
:1044B000BFF34F8FBFF36F8FFEE739B1502080F30A
:1044C0001188BFF34F8FBFF36F8FFEE750241C4658
:1044D000012384F846302B460094FFF7EBF9204681
:1044E00038BD000070B50D46040025D0FFF7EEFC86
:1044F000D4E90F20216802FB001161600021A16353
:104500002168A1600A46D4E90F01401E00FB012189
:10451000E16021464FF0FF3001F8440F487004F18C
:1045200010008DB1FFF7A0FC04F12400FFF79CFC04
:10453000FFF7ECFC012070BD502080F31188BFF321
:104540004F8FBFF36F8FFEE721690029F0D000F095
:1045500095FC0028ECD004494FF080500860BFF370
:104560004F8FBFF36F8FE3E704ED00E02DE9FF47C6
:1045700082B01D468A464FF00008040003D0BAF10D
:10458000000F08D011E0502080F31188BFF34F8F47
:10459000BFF36F8FFEE7206C38B1502080F3118895
:1045A000BFF34F8FBFF36F8FFEE7022D0AD1E06B91
:1045B000012807D0502080F31188BFF34F8FBFF33D
:1045C0006F8FFEE700F05EFB3F4F4FF000094FF0AA
:1045D000805648B9049838B1502080F31188BFF351
:1045E0004F8FBFF36F8FFEE7FFF770FCA06BE16B9F
:1045F000884207D3022D05D00498D0B1B8F1000F3E
:104600001AD01EE02A4651462046FFF7A0F8616AFC
:1046100019B104F1240000F031FC20B13E60BFF379
:104620004F8FBFF36F8FFFF771FC012006B0BDE81D
:10463000F087FFF76BFC22E06846FFF787FD4FF03D
:104640000108FFF763FCFFF74FFEFFF73FFC94F90B
:104650004400401C01D184F8449094F94500401C6A
:1046600001D184F84590FFF751FC04A9684600F099
:1046700071FA30B12046FFF70DFB00F037FC002047
:10468000D4E7FFF723FCA06BE16B884213D1FFF75F
:104690003DFC04F110000499FFF766FD2046FFF78A
:1046A000F9FA00F023FC00289ED13E60BFF34F8F43
:1046B000BFF36F8F98E7FFF729FC2046FFF7EAFA70
:1046C00000F014FC90E7000004ED00E02DE9F04755
:1046D0001F4690468946040003D0B9F1000F08D068
:1046E00011E0502080F31188BFF34F8FBFF36F8F1D
:1046F000FEE7206C38B1502080F31188BFF34F8F54
:10470000BFF36F8FFEE7022F0AD1E06B012807D0BD
:10471000502080F31188BFF34F8FBFF36F8FFEE7F8
:10472000FFF748FC5020EFF3118680F31188BFF3A8
:104730004F8FBFF36F8FA06BE16B884206D3022FC0
:1047400004D0002086F31188BDE8F08794F9455025
:104750003A4649462046FEF7FAFF681C04D06D1C15
:1047600084F845500120EDE7606A0028FAD004F192
:10477000240000F083FB0028F4D0B8F1000FF1D042
:104780000121C8F80010EDE710B5040009D000F0D1
:1047900073FA6168884214D1E068401EE06008D076
:1047A0000DE0502080F31188BFF34F8FBFF36F8F60
:1047B000FEE700231A4619462046FFF7D7FE0120E0
:1047C00010BD002010BD00002DE9F747002683B082
:1047D0008A46040003D0BAF1000F08D011E050203F
:1047E00080F31188BFF34F8FBFF36F8FFEE7206C0C
:1047F00038B1502080F31188BFF34F8FBFF36F8F14
:10480000FEE700F03FFADFF8F4804FF000094FF0C8
:10481000805748B9059838B1502080F31188BFF30C
:104820004F8FBFF36F8FFEE7FFF750FBA56BC5B14E
:1048300051462046FEF778FF6D1EA563206950B1F2
:1048400004F1100000F01AFB28B1C8F80070BFF3A3
:104850004F8FBFF36F8FFFF759FB012006B0BDE804
:10486000F087059808B11EB106E0FFF74FFB27E07F
:104870006846FFF76BFC0126FFF748FBFFF734FDA6
:10488000FFF724FB94F94400401C01D184F84490C4
:1048900094F94500401C01D184F84590FFF736FBA0
:1048A00005A9684600F056F9002820460AD0FFF70F
:1048B000F1F900F01BFB2046FFF79EF80028B3D06B
:1048C0000020CBE7FFF798F890B104F12400059998
:1048D000FFF74AFC2046FFF7DDF900F007FB002850
:1048E000A2D1C8F80070BFF34F8FBFF36F8F9BE763
:1048F0002046FFF7CFF900F0F9FA95E704ED00E064
:104900002DE9F04790468946040003D0B9F1000F25
:1049100008D011E0502080F31188BFF34F8FBFF310
:104920006F8FFEE7206C38B1502080F31188BFF301
:104930004F8FBFF36F8FFEE7FFF73CFB5020EFF385
:10494000118680F31188BFF34F8FBFF36F8FA76B72
:10495000F7B194F9445049462046FEF7E5FE7F1E24
:10496000A763681C04D06D1C84F84450012010E03B
:1049700020690028FAD004F1100000F07FFA002826
:10498000F4D0B8F1000FF1D00121C8F80010EDE724
:10499000002086F31188BDE8F08700002DE9F3437D
:1049A000002683B00400354609D0206C78B1502031
:1049B00080F31188BFF34F8FBFF36F8FFEE7502056
:1049C00080F31188BFF34F8FBFF36F8FFEE700F0C6
:1049D00059F9DFF83C814FF000094FF0805748B992
:1049E000049838B1502080F31188BFF34F8FBFF384
:1049F0006F8FFEE7FFF76AFAA06BC8B1401EA06395
:104A0000206810B9FFF7E8F96060206950B104F13F
:104A1000100000F033FA28B1C8F80070BFF34F8FD0
:104A2000BFF36F8FFFF772FA012005B0BDE8F08386
:104A3000049808B166B10FE03DB1502080F31188B1
:104A4000BFF34F8FBFF36F8FFEE7FFF75FFA5DE0B5
:104A50006846FFF77BFB0126FFF758FAFFF744FC97
:104A6000FFF734FA94F94400401C01D184F84490D3
:104A700094F94500401C01D184F84590FFF746FAAF
:104A800004A9684600F066F80028204612D0FFF717
:104A900001F900F02BFA2046FEF7AEFF0028A9D05E
:104AA0009DB3FFF713FA606A50B3206B0068C0F142
:104AB000380126E0FEF7A0FFE0B1206838B9FFF723
:104AC00005FA606800F09EF90546FFF71FFA04F149
:104AD00024000499FFF748FB2046FFF7DBF800F0BD
:104AE00005FA002886D1C8F80070BFF34F8FBFF3D6
:104AF0006F8F7FE72046FFF7CDF800F0F7F979E7F1
:104B000000216068FFF764FB9FE7FFE700208CE768
:104B100004ED00E070B50D46040009D000F0ACF8DB
:104B2000616888420CD1E068401CE060012070BDE3
:104B3000502080F31188BFF34F8FBFF36F8FFEE7D4
:104B400029462046FFF72AFF0028F0D0E168491CDB
:104B5000E16070BD2DE9F0410C46050011D0C4B1F3
:104B6000FFF7B4F9174B5A696E682068911B471C10
:104B700017D02F689B6A9F4219D0964217D80124FC
:104B800010E0502080F31188BFF34F8FBFF36F8F79
:104B9000FEE7502080F31188BFF34F8FBFF36F8F74
:104BA000FEE70024FFF7B2F92046BDE8F081884215
:104BB00005D9401A20602846FFF7C8FAF1E700201F
:104BC0002060DCE7640B00202DE9FF5F8346DDE910
:104BD0000E87994616468A469000FFF791F8050021
:104BE0001CD05C20FFF78CF8040014D00020256353
:104BF00084F85900CDE90240CDE900874B463246A2
:104C000051465846FEF767FE2046FEF7F9FC0120A4
:104C100004B0BDE8F09F2846FFF78CF94FF0FF3055
:104C2000F6E7F0B585B0DDE90B640A9DA6B1DCB10D
:104C30005C2700972663022684F85960002604AF9B
:104C4000CDE90246CDE90057FEF745FE2046FEF7C6
:104C5000D7FC049805B0F0BD502080F31188BFF355
:104C60004F8FBFF36F8FFEE7502080F31188BFF3A3
:104C70004F8FBFF36F8FFEE7014800687047000059
:104C8000640B00200548C16919B1806B18B1002080
:104C9000704701207047022070470000640B00201D
:104CA0000148406970470000640B002010B5FFF711
:104CB00081F90148406910BD640B00202DE9F041E5
:104CC0002E4C0027A06B40B1206A401C2062606A15
:104CD00000B101273846BDE8F0816669761C66613F
:104CE00013D16068006838B1502080F31188BFF399
:104CF0004F8FBFF36F8FFEE76068A1686160A060AF
:104D0000A06A401CA062FEF745FF206BDFF87080B0
:104D1000864209D36068006880B16068C068C56871
:104D2000686886420DD220632068C06A00EB80016B
:104D300058F821000128CAD90127C8E74FF0FF30F1
:104D4000F1E7281DFFF766F8A86A18B105F1180009
:104D5000FFF760F8E86AA169884200D9A06100EB1A
:104D6000800108EB8100291DFFF7A4F8E86A21689B
:104D7000C96A8842CED30127CCE70000640B00202B
:104D80006C0D002070B504004FF0000133D01B4DB6
:104D90002868844207D0502080F31188BFF34F8FDA
:104DA000BFF36F8FFEE7206D38B1401E2065E36CC6
:104DB000E26A9A421FD040B11DE0502080F3118872
:104DC000BFF34F8FBFF36F8FFEE7201DFFF722F871
:104DD000E06CE062C0F13800A061E06AA969884235
:104DE00000D9A861064900EB800001EB8000211D7D
:104DF000FFF760F80121084670BD0000640B002039
:104E00006C0D002070B504004FF000002BD0194D40
:104E1000E16A2A68D26A914226D2A069002804DB9E
:104E20002868C06AC0F13800A061134E01EB81010F
:104E3000606906EB8101884211D1201DFEF7EAFF6F
:104E40002868C06AE062A969884200D9A86100EBBD
:104E5000800006EB8000211DFFF72CF802E0286897
:104E6000C06AE062012070BDE16C2A68D26A91429A
:104E7000F8D370BD640B00206C0D002070B5C068C5
:104E8000C46854B104F118000646FEF7C3FF144D80
:104E9000A86B50B13146134815E0502080F31188BB
:104EA000BFF34F8FBFF36F8FFEE7201DFEF7B2FFFA
:104EB000E06AA969884200D9A8610B4900EB80002B
:104EC00001EB8000211DFEF7F5FFE06A2968C96A41
:104ED000884202D90120686270BD002070BD0000C8
:104EE000640B0020F41100206C0D00202DE9F04728
:104EF0002C4D00242746A86B38B1FEF7E7FFA86BBE
:104F0000401EA863A86B40B146E0502080F3118892
:104F1000BFF34F8FBFF36F8FFEE72969224E012049
:104F2000D1B3A6F5916980463068E0B1F068C468F5
:104F300004F11800FEF76EFF201DFEF76BFFE06A1C
:104F4000A969884200D9A86100EB800109EB8100C2
:104F5000211DFEF7AFFFE06A2968C96A8842E3D3E2
:104F6000C5F82480E0E70CB1FEF714FE2C6A4CB1C2
:104F70004FEA0806FFF7A2FE00B16E62641EF9D187
:104F800000202862686A38B108490127380708609C
:104F9000BFF34F8FBFF36F8FFEF7B8FF3846BDE802
:104FA000F0870000640B0020F411002004ED00E005
:104FB00010B586B0FEF78CFB114CA068B8B100208C
:104FC0000390049005AA04A903A8FEF741FFDDE9B8
:104FD000032102208DE8070000230AA10B48059A4F
:104FE000FFF71FFEE06010B106B0012010BD502099
:104FF00080F31188BFF34F8FBFF36F8FFEE7000080
:10500000A00B0020546D722053766300713C0008A1
:105010002DE9FF411E46134602000A9D4FF0000095
:1050200016D0144CA768002F0FD0CDE900130292C0
:10503000062917DAFFF726FE02284FF000030FD0EB
:1050400000226946A068FFF791FA04B0BDE8F0813C
:10505000502080F31188BFF34F8FBFF36F8FFEE7AF
:105060002A46EEE70023324669463846FFF72EFB14
:10507000EBE70000A00B00209452000800000000A5
:10508000000000000000000000000000000200001E
:10509000180000000000000000000000AC520008F2
:1050A0000000000000000000000000000000000000
:1050B00000020000180000000000000000000000D6
:1050C000A0520008000000000000000000000000E6
:1050D00000000000000200001800000000000000B6
:1050E00000000000B85200080000000000000000AE
:1050F0000000000000000000000200001800000096
:105100000000000000000000C8520008000000007D
:10511000000000000000000000000000000200008D
:10512000180000000000000000000000F452000819
:10513000000000000000000000000000000000006F
:105140000002000018000000000000000000000045
:10515000E452000800000000000000000000000011
:105160000000000000020000180000000000000025
:1051700000000000D85200080000000000000000FD
:105180000000000000000000000200001800000005
:1051900000000000000000000453000800000000B0
:1051A00000000000000000000000000000020000FD
:1051B0001800000000000000000000005452000829
:1051C00000000000000000000000000000000000DF
:1051D0000000000064520008000000000000000011
:1051E00000000000000000000000000084520008E1
:1051F00000000000000000000000000000000000AF
:1052000000000000745200080000000000000000D0
:105210000000000000000000000000002053000813
:10522000000000000000000000000000145300080F
:10523000000000000000000000000000000000006E
:105240000000000001020304060708090000000036
:105250000102030473657454696D65517565756564
:10526000000000007365744461746551756575656F
:105270000000000073657452696E6751756575654D
:1052800000000000736574416C61726D5175657545
:105290006500000064656661756C745461736B0031
:1052A0006D794C43445F7461736B00006D795541B7
:1052B00052545F7461736B006D7953657454696DFA
:1052C000655F7461736B00006D795365744461743C
:1052D000655F7461736B00006D7952696E675F740E
:1052E00061736B006D79536574416C61726D5F74AD
:1052F00061736B006D79416C61726D5F7461736B8A
:10530000000000006D79427574746F6E735F746194
:10531000736B00006D795254435F4D75746578006E
:105320006D794C43445F4D75746578004C530008AB
:1053300000000020DC0B000028020008C454000814
:10534000DC0B002024320000AE2D000802390001E1
:10535000500A9302000090010000BA0843100310A5
:1053600052DB08C370031861286138D26E106120C7
:105370000318ED0138037820037821F452C8F801AE
:1053800032080132402190613803346E0208012650
:10539000B00215BA78015EF0920B08017AF01A4952
:1053A00044C3C0000892801852ED1052ED102688B8
:1053B00024021C06382130527238D2880821180382
:1053C00074000378011E2821F052B8F092B8788357
:1053D000800420A1080112680231B878A530B1A874
:1053E0000620046802154968523708D2151021209A
:1053F0004F0103F003212029805E8098045EC010D5
:10540000032168016E20026D932065D85605685A05
:1054100037E0965DE02528560530E1205E2518032B
:105420004FC400200347E90038026505205A5D9803
:105430002178A1C092252021B82120A1C061205A45
:1054400005B052AEC052CF60A1C8015A2005BE803F
:1054500039605A04600E140440032D68032D600364
:105460002588ED0003CF4B02380452D25802650B59
:10547000205AC41861E03108021500080119200201
:105480001AB90802B00168021ADC08017568A1089F
:105490001E9B04068F40024803A118D2A018013AAF
:1054A000805E257803E1082D5806A18065E82D9FD0
:1054B000076E10250B00046E24F4000112AA0121CE
:0454C0007500000073
:04000005080000ED02
:00000001FF
